:100000000C9434000C9451000C9451000C94510049
:100010000C9451000C9451000C9451000C9451001C
:100020000C9451000C9451000C9451000C9451000C
:100030000C9451000C9451000C9451000C945100FC
:100040000C9451000C9451000C94B3000C9451008A
:100050000C9451000C9451000C9451000C945100DC
:100060000C9451000C94510011241FBECFEFD8E026
:10007000DEBFCDBF11E0A0E0B1E0E2E1F4E002C0FC
:1000800005900D92A235B107D9F711E0A2E5B1E0D4
:1000900001C01D92A539B107E1F70E9461000C94DF
:1000A00007020C94000041505040469F9001479F2A
:1000B000300D569F300D1124280F391FC9010895A6
:1000C00008950F931F93CF93DF9380E895E20E94EA
:1000D000DF00C0E9D1E080E091E00E940A010E94C7
:1000E000FF00892BE1F388EE93E0FE013197F1F7F1
:1000F0000197D9F780E090E00E94420184E191E00D
:100100000E940A010E94FF00892BE1F388EE93E030
:10011000FE013197F1F70197D9F780E090E00E9456
:10012000420186E291E00E940A010E94FF00892BB1
:10013000E1F388EE93E0FE013197F1F70197D9F7EB
:1001400000E010E0C8010E94420181E491E00E94B9
:100150000A0180E090E060E070E0A8010E94530096
:100160000E940A01B8CF1F920F920FB60F9211246E
:100170008F939F93EF93FF93809154019091C600CA
:10018000E82FF0E0EB5AFE4F90838F5F809354018D
:10019000809154018F738093540180915201803477
:1001A00028F4809152018F5F80935201FF91EF916B
:1001B0009F918F910F900FBE0F901F9018959B01EC
:1001C000AC0180E28093C00088E98093C10086E0A2
:1001D0008093C20084E0220F331F441F551F8A956D
:1001E000D1F760E074E284EF90E00E94E5012150D5
:1001F00030403093C5002093C400789408958091D6
:1002000052010895982F8091C00085FFFCCF9093F4
:10021000C6000895FC0107C08091C00085FFFCCF97
:100220009093C600319690819923B1F708959C016F
:10023000F9012F5F3F4F9491992339F08091C000CD
:1002400085FFFCCF9093C600F3CF089580915201B3
:10025000882311F4EFEF14C080915301E82FF0E0F0
:10026000EB5AFE4FE0818F5F8093530180915301E1
:100270008F7380935301809152018150809352017A
:100280008E2F0895EF92FF921F93CF93DF937C01FF
:1002900010E006C00E942601CE0DDF1D88831F5F7F
:1002A00080915201C12FD0E08823A1F7CE0DDF1D30
:1002B0001882812FDF91CF911F91FF90EF900895C9
:1002C00080915201882311F48FEF0895E09153013A
:1002D000F0E0EB5AFE4F808108951F93CF93DF9398
:1002E00002C00E94260180915201882341F0E091D2
:1002F0005301F0E0EB5AFE4F8081803364F480912B
:100300005201882371F3E0915301F0E0EB5AFE4F64
:1003100080818D3231F780915201882341F0E09144
:100320005301F0E0EB5AFE4F80818A33D4F680917E
:100330005201882361F0E0915301F0E0EB5AFE4F47
:1003400080818D3221F40E9426011FEF01C011E04F
:10035000C0E0D0E012C00E9426019E0143E0220FBF
:10036000331F4A95E1F7CC0FDD1FC20FD31FE09773
:10037000992787FD9095C80FD91F80915201882336
:10038000A1F0E0915301F0E0EB5AFE4F8081803301
:1003900064F0809152018823F1F2E0915301F0E082
:1003A000EB5AFE4F80818A33B4F2812F992787FD63
:1003B0009095C89F9001C99F300DD89F300D112492
:1003C000C901DF91CF911F910895A1E21A2EAA1BB6
:1003D000BB1BFD010DC0AA1FBB1FEE1FFF1FA217F5
:1003E000B307E407F50720F0A21BB30BE40BF50BF2
:1003F000661F771F881F991F1A9469F7609570957B
:10040000809590959B01AC01BD01CF010895F894B2
:02041000FFCF1C
:10041200556E657369207072766920636C616E3AFD
:10042200200D0A00556E6573692072617A6C696BE2
:10043200753A200D0A00556E6573697465206E2D3C
:10044200746920636C616E206E697A613A200D0ACC
:10045200006E2D746920636C616E206E697A613A58
:02046200200078
:00000001FF
